:20000000CFC082C2E8C0E7C0E6C0E5C0E4C0E3C0E2C0E1C0E0C0DFC0DEC0DDC0DCC00403CC
:20002000090420037700770077002E0064006300740074006500630068002E0063006F001E
:200040006D001403550053004200520065006C006100790032001201100100000008C01601
:20006000DF0500010102000109022200010100800A090400000103000000092101010001A0
:20008000221600070581030800140600FF0901A101150026FF00750895080900B20201C0F9
:2000A000005EBCE2613FDD83C29C7E20A3FD1F419DC3217FFCA2401E5F01E3BD3E6082DC50
:2000C000237D9FC1421CFEA0E1BF5D0380DE3C62BEE0025CDF81633D7C22C09E1D43A1FF30
:2000E0004618FAA427799BC584DA3866E5BB5907DB856739BAE406581947A5FB7826C49A10
:20010000653BD987045AB8E6A7F91B45C6987A24F8A6441A99C7257B3A6486D85B05E7B9EF
:200120008CD2306EEDB3510F4E10F2AC2F7193CD114FADF3702ECC92D38D6F31B2EC0E50CF
:20014000AFF1134DCE90722C6D33D18F0C52B0EE326C8ED0530DEFB1F0AE4C1291CF2D73AF
:20016000CA947628ABF517490856B4EA6937D58B5709EBB536688AD495CB2977F4AA48168F
:20018000E9B7550B88D6346A2B7597C94A14F6A8742AC896154BA9F7B6E80A54D7896B356F
:2001A00011241FBECFE5D1E0DEBFCDBF10E0A0E6B0E0E4EBFAE002C005900D92A236B1076A
:2001C000D9F710E0A2E6B0E001C01D92A13AB107E1F706D36DC414CF85B7826085BF8BB7DB
:2001E00080648BBF8BE4809377008AE58093760008951F93DC01162F8091760084FF07C09E
:200200008091770098E889278093770003C08AE580937600912FE8E7F0E08D91819391506F
:200220001916DCF388E790E0612F57D11C5F109376001F9108951F93CF93DF93609187004A
:20024000635067FDC2C080918400CCE0D0E0C81BD109C557DF4F809183008D3209F0A3C05E
:20026000683009F0B0C083EC80936B008AE580936000109263008881807639F0CE01A2D23E
:20028000282F8F3F09F47EC084C09A81109274008981882321F41092750022E06CC08530C5
:2002A00019F49093880066C0863009F04FC08B81813041F486E590E0909386008093850094
:2002C00022E140C0823041F488E690E0909386008093850022E236C08330F9F48A818823C5
:2002E00041F48EE190E0909386008093850024E029C0813041F482E290E090938600809346
:20030000850020E21FC08230E1F482E490E0909386008093850024E115C0813241F48AE7A6
:2003200090E0909386008093850029E00BC0823241F48AE890E0909386008093850026E125
:2003400001C020E080E48093630023C0883021F421E08AE890E011C0893019F490938A002B
:2003600009C08A3011F421E006C08B3019F48BE48093770020E084E790E0909386008093D6
:20038000850007C0888187FD2E8180E88093630006C08F81882319F48E81821708F0822F18
:2003A0008093610010C08091630087FF0CC0CE01B3D28F3F21F48EE18093600004C08823AB
:2003C00011F010926100109287008091600084FF54C0809161008F3F09F44FC0182F89309C
:2003E00008F018E0811B8093610080916B0098E8892780936B00112371F18091630087FF43
:2004000008C08CE690E0612F04D3182F893078F522C0209185003091860086FF0AC0912FF0
:20042000F901ACE6B0E084918D9331969150D9F708C0912FD901ECE6F0E08D9181939150DC
:20044000E1F7C90101961150810F911D1F5F90938600809385008CE690E0612F3ED0612FF5
:200460006C5F6C3041F08FEF8093610004C08FEF809361006EE16093600094E186B38670F6
:2004800031F49150D9F7109288001092820010E0992309F411E080916200811729F0112346
:2004A00009F4BBD110936200DF91CF911F910895A82FB92F80E090E041E050EA609530E0A2
:2004C00009C02D9182279795879510F084279527305EC8F36F5FA8F30895EADF8D939D93D5
:2004E0000895A6E088279927AA9569F00197E1F3B199FCCFB19BFECF81E09927A6B3019627
:2005000011F0A670D9F70895CF93CFB7CF93C395B19BE9F7B19B0BC0B19B09C0B19B07C04A
:20052000B19B05C0B19B03C0B19B01C0D5C00F92DF93C0918400DD27C557DF4F012EB19B48
:2005400003C0DF910F90E6CF2F930F931F934F932FEF4F6F06B301FB20F95F933F9350E07E
:200560003BE065C016B30126502951FDC89556B3012701FB25F92F7306B3B1F05027102732
:2005800011FB26F906B22230F0F000C016B3012701FB27F90126502906B22430E8F54F772A
:2005A000206816B30000F6CF50274F7D206206B2102F000000C006B300265029102711FB0E
:2005C00026F906B2E2CF4F7B06B3206400C0DACF01265029167006B269F14E7F2160012F6D
:2005E00016B328C0002650294D7F06B22260102F29C0012650294B7F06B22460012F2DC0BA
:2006000016B301265029477F2860000006B22EC04F7E06B3206130C0422706B34993002662
:200620005029102706B24FEF11FB20F9297F16B379F2167059F10126502906B2012701FBC7
:2006400021F9237F06B371F2002650293150D0F006B2102711FB22F9277E16B351F20126F4
:200660005029012701FB06B223F92F7C49F2000006B3102711FB24F90026502906B22F790B
:2006800039F270CF10E41ABF002719C03B503195C31BD04010E41ABF0881033C09F10B3416
:2006A000F9F0209182001981110F1213EDCF4A81441F093651F10D3211F0013E29F70093A2
:2006C00089003F915F914F911F910F912F91DF910F90CAB7C6FD1BCFCF91CFBFCF911895A9
:2006E00020918900222369F310918700112379F534307AF1309387002093830010918400E1
:200700003BE0311B3093840024C0009187000130F4F40AE54F7049F43091600034FD1AC0FF
:2007200000936000CBE6D0E019C03091760034FD11C000937600C7E7D0E010C0052710E000
:2007400000C021C0052710E0C89508BB14C03AE501C032ED032EC0E0D0E032E017B3166016
:20076000C19A08B317BB56E020E84FEF20FF052708BB279517951C3F28F700004552B0F7E7
:2007800020FF0527279508BB17951C3FB8F629913A9561F7097F10918800110F08BBC25053
:2007A000D04011F01093820010E41ABF026017B3197F402F497F54E05A95F1F708BB17BB9B
:2007C00048BB7FCFFC0180818076803239F48181813011F0893011F48FEF089580E008956B
:2007E0002EE088E190E00FB6F894A89581BD0FBE21BDF2DCB99A20E04DE150E104C0A8951A
:20080000CA010197F1F72150D1F7B99887B3886187BB7894A8950FDDFDCFCF92DF92EF924A
:20082000FF920F931F93CF93DF93CFE0D7E2CC24DD24DD2011F010E801C010E040E050E0AF
:2008400000E4EE24FF244453594014F4100F01C0101B11BF46DE9C01AC0189E025333807FE
:2008600014F0C90104C088279927821B930B845399408C179D076CF489E02533380714F0E1
:20088000E90104C0CC27DD27C21BD30BC453D940C12E06950894E11CF11C87E0E816F1043E
:2008A00091F6D39482E0D81621F6C1BEDF91CF911F910F91FF90EF90DF90CF9008951F9319
:2008C000CF93DF93EC01162F60E070E0412F50E0D9D0E199FECFCE0160E470E0412F50E0EF
:2008E000D1D0E199FECFCE0160E870E0412F50E0C9D08881809364008981809365008A8163
:20090000809366008B81809367008C8180936800DF91CF911F9108951F93CF93DF93FC01B0
:20092000162FAC014F5F5F4F218180818D3F99F08E3F28F48A3FF1F08C3F99F517C08E3FE1
:2009400091F08F3F71F5213011F4C39A2AC0223041F5C49A26C0213011F4C39822C0223094
:2009600001F5C4981EC088B3886102C088B3877E88BB17C0DF01EF0126969F012B5F3F4FC3
:20098000E88111968C911197E827F0E0E056FF4F808188831196A217B30791F7CA0166E060
:2009A0008EDF812FDF91CF911F9108950F931F93CF93DF9380916A00813031F105E010E0B2
:2009C000C0E0D0E0E199FECF84E690E0BE0146E050E049D0A4E6B0E008C08D911827E12F29
:2009E000F0E0E056FF4F108101500023B1F780916900181721F481E080936A0005C0C05C79
:200A0000DF4FC03CD105F1F6DF91CF911F910F9108951F93CF93DF93EC01162F009711F4DE
:200A200010E01CC0C3DF809164008883809165008983809166008A83809167008B8380912B
:200A400068008C831D821E821F82C49B02C082E08F83C39B03C08F8181608F83812FDF9166
:200A6000CF911F910895DC01862FE82FE199FECF1FBA05C0EEBBE09AE3950DB20D924150B1
:200A8000C8F70895DC01862F02C02D9104D04150E0F70895262FE199FECF1CBA1FBA8EBB7B
:160AA0002DBB0FB6F894E29AE19A0FBE01960895F894FFCF5AFF5C
:00000001FF
